:020000040800F2
:10000000D0A30020390200088B170008D315000880
:10001000891700082F040008691E0008000000006E
:10002000000000000000000000000000F5170008BC
:10003000310400080000000091170008FD180008B6
:10004000530200088D1700085302000853020008ED
:10005000530200085302000853020008530200082C
:10006000530200085302000853020008530200081C
:10007000530200085302000853020008530200080C
:100080005302000853020008530200080000000059
:100090000000000000000000000000005302000803
:1000A00053020008A1190008530200085302000877
:1000B00053020008530200085302000853020008CC
:1000C00053020008530200085302000853020008BC
:1000D000530200085D1E00085302000800000000E3
:1000E00053020008530200085302000800000000F9
:1000F00000000000000000000000000053020008A3
:1001000000000000530200085302000853020008D8
:1001100000000000000000000000000000000000DF
:10012000530200085302000853020008530200085B
:100130005302000800000000000000000000000062
:100140000000000000000000000000005302000852
:10015000530200085302000853020008530200082B
:1001600053020008530200080000000000000000D5
:10017000000000000000000000000000000000007F
:100180000000000053020008000000000000000012
:10019000530200085302000800F002F800F03CF897
:1001A0000AA090E8000C82448344AAF10107DA45D2
:1001B00001D100F031F8AFF2090EBAE80F0013F0E8
:1001C000010F18BFFB1A43F001031847FC1D000084
:1001D0001C1E0000103A24BF78C878C1FAD8520714
:1001E00024BF30C830C144BF04680C6070470000B1
:1001F0000023002400250026103A28BF78C1FBD830
:10020000520728BF30C148BF0B6070471FB501F0CF
:10021000C9FE1FBD10B510BD00F0CFF81146FFF7A5
:10022000F5FF01F033FE00F0EDF803B4FFF7F2FF45
:1002300003BC00F0F5F80000094880470948004772
:10024000FEE7FEE7FEE7FEE7FEE7FEE7FEE7FEE786
:10025000FEE7FEE704480549054A064B70470000E3
:100260009119000899010008D09D0020D0A300201A
:10027000D09F0020D09F002053EA020C00F069803C
:100280002DE9F04B4FF00006002B1FBFB3FA83F5AA
:1002900003FA05F424FA05F65E4012BF1643B2FADB
:1002A00082F502FA05F4C5F120051EBF22FA05FC0D
:1002B00044EA0C04203556EA044C4FEA144418BFB3
:1002C000641C4FF000084FF00009904271EB030CE2
:1002D00039D3002919BFB1FA81F701FA07F6B0FA4C
:1002E00080F700FA07F6C7F120071EBF20FA07FCC7
:1002F00046EA0C062037B6FBF4FCA7EB0507103FD7
:1003000007F01F0BCBF120060CFA0BFB2CFA06F6BC
:1003100044BFB3460026202FA4BF5E464FF0000B1B
:100320005BEA060C08BF4FF0010B19EB0B09ABFBA6
:10033000027C48EB0608C01B06FB02CC0BFB03CC7F
:1003400071EB0C01C1E70B46024641464846BDE849
:10035000F08B13B54FF000004FF00001AFF30080B9
:10036000BDE81C4070474FF0000200B513469446AC
:100370009646203922BFA0E80C50A0E80C50B1F1FD
:100380002001BFF4F7AF090728BFA0E80C5048BF11
:100390000CC05DF804EB890028BF40F8042B08BFAF
:1003A000704748BF20F8022B11F0804F18BF00F8AB
:1003B000012B7047704770477047754600F02CF866
:1003C000AE4605006946534620F00700854618B042
:1003D00020B5FFF73FFFBDE820404FF000064FF08B
:1003E00000074FF000084FF0000B21F00701AC466A
:1003F000ACE8C009ACE8C009ACE8C009ACE8C00989
:100400008D46704710B50446AFF300802046BDE826
:100410001040FFF70ABF0000004870476C9D0020A5
:1004200001491820ABBEFEE7260002007047FEE738
:1004300070472DE9F0410446876D00F061F90646EA
:1004400094F835000025022806D08020606584F8E5
:1004500034500120BDE8F0812068016821F01601C8
:1004600001602068416921F080014161206C08B978
:10047000A06C20B12068016821F0080101602068AB
:10048000016821F0010101600CE000F039F9801BE6
:10049000052807D920206065032084F8350084F8FA
:1004A0003450D7E720680068C007EED194F85C109C
:1004B0003F208840B860012084F8350084F834502B
:1004C0000020C7E790F83510022903D0802141654C
:1004D00001207047052180F835100068016821F07F
:1004E000010101600020704770B5044600F008F972
:1004F0000546601C02D004480078044400F000F96E
:10050000401BA042FAD370BD800000202DE9F84FB7
:10051000DFF8B8A10022012403254FF00F090AF1EA
:10052000040BAAF1040E00BF0B6804FA02F6334074
:10053000B34273D10F7907F00307012F01D0022FC7
:1005400016D187684FEA420805FA08FC27EA0C072B
:10055000D1F80CC00CFA08FC4CEA070CC0F808C033
:100560004768B7430E79C6F3001696403E4346608F
:100570000E79F643B6070DD0C768560005FA06FC9B
:1005800027EA0C07D1F808C00CFA06FC4CEA070C65
:10059000C0F80CC00E7906F00306022E10D1D60862
:1005A00000EB8608D8F8206057074FEAD76C09FAA5
:1005B0000CF7BE430F6907FA0CF73743C8F82070F1
:1005C00006684FEA420C05FA0CF7BE430F7907F0B4
:1005D000030707FA0CF7374307604E6816F4403FED
:1005E0006DD03B4E376847F480473760366822F05D
:1005F000030706F480460096364E07EB060CDCF83F
:10060000086897073F0F09FA07F826EA0806DFF897
:10061000C880404503D14FF000081EE04FE0DFF8EE
:10062000BC80404502D14FF0010816E0DFF8B080F1
:10063000404502D14FF002080FE0DFF8A8804045A6
:1006400002D14FF0030808E0DFF89C80404502D15A
:100650004FF0040801E04FF0070808FA07F848EAED
:100660000608CCF80888DAF800605746D1F804C0CC
:100670009E435FEACC2C00D51E433E60DBF8006051
:100680005F46D1F804C09E435FEA8C2C00D51E4320
:100690003E60DEF800607746D1F804C09E435FEA12
:1006A0008C3C00D51E433E60084F083F3E68D1F8A1
:1006B00004C09E435FEACC3C00D51E433E60521C02
:1006C000102AFFF431AFBDE8F88F0000083C01406C
:1006D0004438024000300140000002400004024063
:1006E00000080240000C024000100240006908406F
:1006F00000D0012070470AB1816170470904FBE70F
:10070000014880687047000080000020024881682E
:100710000278114481607047800000200B4810B5BA
:10072000016841F400710160016841F48061016079
:10073000016841F480710160032000F077F80F2018
:1007400000F006F800F024F8002010BD003C024044
:1007500070B50D4D04464FF47A712878B1FBF0F076
:100760000A490968B1FBF0F000F024FB48B9102CED
:1007700007D200222146501E00F038F800206C609D
:1007800070BD012070BD0000800000208C000020A2
:100790000E4808B5016841F480410160006800F42A
:1007A000804000900948001F016841F080510160BD
:1007B0000068002200F0805000901146012000F0F7
:1007C00015F8BDE80840012000F002B844380240A6
:1007D000002809DB00F01F02012191404009800040
:1007E00000F1E020C0F8001170470000F0B40E4B9B
:1007F0001B680C46C3F30223C3F10705042D00D97F
:100800000425191D072901D2002300E0DB1E012663
:1008100006FA05F1491E214099409E40761E164079
:100820003143F0BC01F021BB0CED00E0064900F0C3
:10083000070208684FF6FF03184040EA0220034A07
:1008400010430860704700000CED00E00000FA055E
:100850007047000010B5054C2068C00304D5FFF7B1
:10086000F7FF4FF48030206010BD0000143C0140C1
:100870002DE9F0470E46050065D0DFF81481D8F861
:100880000000F7B200F00700B04207D288F800700D
:10089000D8F8000000F00700B04254D128683D4C61
:1008A000810712D5400703D5206840F4E05020604E
:1008B0002878000703D5206840F460402060206855
:1008C000A96820F0F000084320602878C0072DD0E8
:1008D000304968680839012812D0022813D003284B
:1008E00011D00968890700292DDA216821F0030158
:1008F00001432160FFF704FF814641F2883A0EE090
:1009000009688903EFE709688901ECE7FFF7F8FE5A
:10091000A0EB0901514502D90320BDE8F08720680A
:10092000696800F00C00B0EB810FEFD1D8F800102F
:10093000404601F00701B14207D90770006800F096
:100940000700B04201D00120E7E72878400705D52D
:100950002068E96820F4E050084320602878000708
:1009600006D52068296920F4604040EAC100206073
:1009700000F038F82168084AC1F30311515CC840FF
:100980000649086006480068FFF7E2FE0020C4E759
:10099000003C024008380240AE1F00088C000020D6
:1009A000840000200448054900680968044AC1F32E
:1009B0008221515CC84070478C00002008380240FA
:1009C000BE1F00080448054900680968044AC1F3CD
:1009D0004231515CC84070478C000020083802400A
:1009E000BE1F0008154810B5006810F00C0214482E
:1009F00013D01449042A0FD0082A0ED10F4C241FFB
:100A00002268236802F03F025B0207D52068C0F32A
:100A10008810A0FB010106E0084610BD2168C1F363
:100A20008811A1FB00010023FFF726FC2168C1F318
:100A30000141491C4900B0FBF1F010BD08380240EB
:100A40000024F40040787D012DE9F84F04006ED0B9
:100A50002078DFF84C93C007A9F104054AD009F1CA
:100A600004000168C1F38101012908D00068C0F3C6
:100A7000810002280AD1D9F80000400206D5286872
:100A8000800337D560680028E1D033E06068B0F5B6
:100A9000803F10D0B0F5A02F286810D020F480300F
:100AA0002860286820F4802028606068A8B1FFF7DB
:100AB00027FE06460DE0286840F48030F4E740F455
:100AC00080202860F7E700BFFFF71AFE801B64282C
:100AD00073D828688003F7D50CE0FFF711FE0646AF
:100AE00005E000BFFFF70CFE801B6428F0D82868E3
:100AF0008003F7D42078DFF8AC8280074FF0000A3B
:100B00003ED5A748001D016811F00C0F08D0006801
:100B1000C0F3810002280BD1D9F80000400207D4AD
:100B20002868800716D5E068012800D112E033E17B
:100B3000E068B8B10120C8F80000FFF7E1FD064603
:100B400005E000BFFFF7DCFD801B0228C0D8286845
:100B50008007F7D52868216920F0F80040EAC10035
:100B600028600DE0C8F800A0FFF7CAFD064604E0C3
:100B7000FFF7C6FD801B02281FD828688007F7D41E
:100B80002078000722D5864F87486169703771B198
:100B900001210160FFF7B4FD064604E0FFF7B0FD58
:100BA000801B022809D838688007F7D50EE0C0F806
:100BB00000A0FFF7A5FD064605E082E0FFF7A0FDD7
:100BC000801B02287DD838688007F7D4207840073A
:100BD00068D5DFF8CCB100270BF13C0BDBF8000047
:100BE000C0000BD4DBF8001041F08051CBF80010AE
:100BF000DBF80000012700F0805000906B4E306859
:100C0000C00510D4306840F480703060FFF778FD84
:100C1000009005E0FFF774FD0099401A022850D8B3
:100C20003068C005F6D55E4EA0686C3601280FD03E
:100C30000528306810D020F001003060306820F0C6
:100C400004003060A068B8B1FFF75AFD00900FE0D3
:100C5000306840F00100F4E740F004003060F7E74E
:100C6000FFF74EFD0099411A41F28830814266D863
:100C700030688007F4D50EE0FFF742FD009007E0F2
:100C8000FFF73EFD0099411A41F28830814256D863
:100C900030688007F4D42FB1DBF8001021F08051C8
:100CA000CBF80010A069C8B33D49091D0968C1F31C
:100CB000810102294AD00228504607D0C8F86000B6
:100CC00000E03CE0FFF71CFD04463BE04746C8F867
:100CD0006000FFF715FD064605E000BFFFF710FDB9
:100CE000801B02282BD828688001F7D4D4E907019B
:100CF0000843A16A2E4A490802EB0141626A41EAAF
:100D00008211084394F82C1040EA0161C9F80010E0
:100D100001203866FFF7F4FC044606E03EE000BF21
:100D2000FFF7EEFC001B022809D828688001F7D5E0
:100D300034E000BFFFF7E4FC001B022802D90320C7
:100D4000BDE8F88F28688001F4D427E00128F7D0A7
:100D5000D9F80000E26900F4800191421CD1226AB6
:100D600000F03F01914217D147F6C071626A01401D
:100D7000B1EB821F10D1A26A4FF0FF3300F4403173
:100D800003EB5202B1EB024F06D194F82C1000F0A5
:100D90007060B0EB016F01D00120D1E70020CFE7F8
:100DA0000438024000004742800E47420070004075
:100DB0000000FFFF10B5401EB0F1807F01D301207D
:100DC00010BD4FF0E02460610F21601701F04DF875
:100DD0000020A06107202061002010BD70477047EF
:100DE00010B590F83C20012A22D0012280F83C2046
:100DF000CA688C6822F4407222434C6822F48062F4
:100E000022430C6822F4006222430C6922F48052CF
:100E100022434C6922F400522243C969002322F480
:100E200080420A4301684A6480F83C30002010BDCB
:100E3000022010BD70B590F83C20012A2CD001246E
:100E400080F83C40022280F83D2003685A689D6883
:100E500022F070060A6832435A60104B02689A42C8
:100E60000ED0B2F1804F0BD00D4B9A4208D00D4BF3
:100E70009A4205D00C4B9A4202D00C4B9A4204D1B4
:100E8000496825F080031943916080F83D400021B6
:100E900080F83C10084670BD022070BD0000014083
:100EA0000004004000080040000C004000400140E9
:100EB00010B5040003D094F83D0010B107E0012004
:100EC00010BD002084F83C00204600F01FF80220EE
:100ED00084F83D00211D206800F068FD012084F8A1
:100EE000460084F83E0084F83F0084F8400084F80F
:100EF000410084F8420084F8430084F8440084F8F8
:100F0000450084F83D00002010BD000008B50068D1
:100F10000B49884212D10B48016841F00101016080
:100F20000068002200F00100009011461920FFF730
:100F30005DFCBDE808401920FFF74ABC08BD000071
:100F4000000001404438024070B5044690F83C006F
:100F50000025012817D0012684F83C60022084F87F
:100F60003D002068826822F0770222F47F4282608E
:100F70000868502838D00DDC20284FD005DC90B30D
:100F8000102811D14AE0022070BD302846D04028F8
:100F90000AD13BE060282FD070280DD0B0F5805FDB
:100FA00003D0B0F5005F12D0012584F83D60002029
:100FB00084F83C00284670BDCB68D1E90121206847
:100FC00000F044FD2068816841F0770109E0CB68BA
:100FD000D1E90121206800F039FD2068816841F4E1
:100FE00080418160E1E719E0CA684968206800F043
:100FF000E1FD5021206806E0CA684968206800F0D9
:10100000EAFD6021206800F02BFDCEE7CA68496840
:10101000206800F0CFFD40212068F4E722680146F7
:101020001046F0E770472DE9F04104460068C668B5
:1010300005694FF00007A90713D5B10711D5F91EAF
:10104000016101202077206880698007204602D056
:10105000FFF7E8FF04E000F0A7F8204600F0D3F81F
:101060002777680716D5700714D521686FF004003C
:101070000861022020772068806910F4407F2046B4
:1010800002D0FFF7CFFF04E000F08EF8204600F01A
:10109000BAF82777280715D5300713D521686FF0E0
:1010A00008000861042020772068C0698007204676
:1010B00002D0FFF7B7FF04E000F076F8204600F01A
:1010C000A2F82777E80616D5F00614D521686FF048
:1010D00010000861082020772068C06910F4407F64
:1010E000204602D0FFF79EFF04E000F05DF82046A6
:1010F00000F089F82777E80708D0F00706D02168C4
:101100006FF001000861204600F07EF8280608D53F
:10111000300606D521686FF0800008612046FFF791
:101120005DFE680608D5700606D521686FF04000A0
:101130000861204600F069F8A8060AD5B00608D56F
:1011400021686FF0200008612046BDE8F041FFF7FC
:1011500046BEBDE8F08170B5044690F83C0000251D
:1011600001280FD0012084F83C006AB1042A0FD076
:10117000082A11D00C2A13D00125002084F83C0045
:10118000284670BD022070BD206800F071FCF4E7B5
:10119000206800F095FCF0E7206800F0BDFCECE76B
:1011A000206800F0E5FCE8E7704710B5040003D0C4
:1011B00094F83D0010B107E0012010BD002084F834
:1011C0003C00204600F01EF8022084F83D00211D5E
:1011D000206800F0EBFB012084F8460084F83E0014
:1011E00084F83F0084F8400084F8410084F842000D
:1011F00084F8430084F8440084F8450084F83D00F6
:10120000002010BD704770477047704770477047A7
:10121000F8B5016804460868CA684B6910F00F0FFA
:101220004FF0000559D003F0010602F490773743E0
:1012300065D0C10705D0D10503D5616C41F001012E
:101240006164410705D5D90703D0616C41F0020103
:101250006164810705D5D90703D0616C41F00401B1
:101260006164010707D502F02001314303D0616CAE
:1012700041F008016164616C00293AD0800604D510
:10128000900602D5204600F0E6FC20684069616CBB
:10129000C0F38010090700D460B3204600F0B4FC0E
:1012A00020684069400621D52068143050E8001FAE
:1012B00021F0400140E80012002AF5D1E06BA8B10E
:1012C00072490165E06BFFF7FDF8002811D0E06B73
:1012D000016D01B0BDE8F040084783060FD59306C5
:1012E0000DD52046BDE8F84000F0B5BC2046FFF71C
:1012F0008EFFF8BD2046FFF78AFF6564F8BD266BB8
:101300002023012E7ED1C6067CD5D6067AD5086864
:101310004868009048694FF0020640064DD5E26BE0
:10132000106840684FF480770004000C3AD0A18D1B
:10133000814237D9E085D069B8422DD020680C3081
:1013400050E8001F21F4807140E80012002AF5D116
:101350002068143050E8001F21F0010140E800121D
:10136000002AF5D12068143050E8001F21F0400118
:1013700040E80012002AF5D184F842302563206845
:101380000C3050E8001F21F0100140E80012002A44
:10139000F5D1E06BFFF74DF86663A08DE18D401A43
:1013A00081B206E0A18D8142A8D1D069B842A5D111
:1013B00066632046FFF72AFFF8BDA08DE18D401A35
:1013C00081B2E08D0028F7D00029F5D020680C30DC
:1013D00050E8002F22F4907240E80027002FF5D14A
:1013E0002068143050E8002F22F0010240E8002766
:1013F000002FF5D184F84230256320680C3050E886
:10140000002F00E006E022F0100240E80023002B4D
:10141000F3D1CDE705062BD5150629D594F8410063
:101420002128C9D1A068B0F5805F01D12069B0B191
:10143000206A411C2162216800784860E08C401ECF
:101440000004000CE084B7D12068C16821F080015D
:10145000C1602068C16841F04001C160F8BD206AE8
:101460000088C0F308004860206A801C2062E5E71D
:101470004006F3D55006F1D5CA68204622F0400256
:10148000CA6084F8413000F0A3F8F8BDFB1B0008E7
:1014900070B5040004D094F84100002510B106E0B6
:1014A000012070BD84F84050204600F023F824202D
:1014B00084F841002068C16821F40051C1602046D1
:1014C00000F02AFC2068016921F490410161206844
:1014D000416921F02A0141612068C16841F400514D
:1014E000C1606564202084F8410084F8420065638F
:1014F000002070BD10B586B0044614216846FEF782
:1015000032FF18492068884229D117480021026813
:1015100042F010020260006800F0100005901248CE
:101520001438026842F001020260006800F0010015
:1015300005904FF4C06000900220CDE90101032026
:1015400003900720049069460848FEF7DFFF002259
:1015500001212520FFF74AF92520FFF739F906B0C8
:1015600010BD00000010014044380240000002405D
:1015700090F84230202B01D00220704721B11AB1DF
:101580000023036300F04EBC0120704700680C4943
:10159000884214D10B4882780A2A07D001210170B1
:1015A000094B41785A54491C417002E000210170F6
:1015B000818004490122891C0448FFF7D9BF704784
:1015C0000010014000000020609D0020D800002095
:1015D0007047FEE72DE9F04786B014216846FEF714
:1015E000C2FE34480024016841F004010160016832
:1015F00001F004010591016841F08001016001687A
:1016000001F080010591016841F00101016001686C
:1016100001F001010591016841F0020101600068DB
:10162000DFF8948000F002004FF40055059000228E
:1016300029464046FFF75FF8DFF8809048F23F0602
:10164000002231464846FFF756F8DFF874A04FF401
:10165000FC77002239465046FFF74DF800950125EA
:10166000CDE90154694640460394FEF74FFF0096CA
:10167000CDE90154694648460394FEF747FFC02070
:10168000CDE90004694648460294FEF73FFF032077
:10169000CDE90004694650460294FEF737FF0097F3
:1016A000CDE90154694650460394FEF72FFF06B07A
:1016B000BDE8F087303802400008024000000240D8
:1016C0000004024010B596B000240F9410941194B9
:1016D000129413941C2108A81494FEF744FE2021B0
:1016E0006846FEF740FE2748254901606321C0E9AE
:1016F000011440F2E731C0E903148021C0E905413B
:10170000FFF7D6FB08B172B6FEE74FF480500F909A
:101710000FA91C48FFF718FC08B172B6FEE719487C
:10172000FFF743FD08B172B6FEE7139413A91548FD
:101730001494FFF77FFB08B172B6FEE70894099492
:101740000A940B940C940D94002208A90D480E9451
:10175000FFF701FD08B172B6FEE700944FF40050A8
:10176000CDE9044002940194039469460548079426
:10177000FFF736FB002801D072B6FEE716B010BDA9
:101780000000014090000020FEE7FEE7FFF762B88E
:10179000704700000FB49FED161A2DED020BC0EE3E
:1017A000010A70B59DED0A0A0B9ABDF81C10069847
:1017B00020EE800ABDEEC00A10EE105AFEF79BFF25
:1017C0000024BDF824600DE0012231460898FEF7A0
:1017D00092FF0120FEF788FE002231460898FEF7AE
:1017E0008AFF641CAC42EFDB70BC5DF81CFB0000A0
:1017F0006666663D704700002DE9F04FDFF8F0A007
:10180000DFF8F0B03C4C01252DED048B83B0B7EE32
:10181000009ADFED368AB0EE688A4021574650467E
:10182000FEF764FF064640213846FEF75FFF81461B
:1018300040215F465846FEF759FF80460221384650
:10184000FEF754FF07460195A0690090DEB3B0EEA5
:10185000480A00BF04F108000FC8FFF79BFF01957D
:10186000E06AB9F1000F009031D0B0EE480A00BF35
:1018700004F11C000FC8FFF78DFF0195206CB8F133
:10188000000F009026D0B0EE480A00BF04F13000EF
:101890000FC8FFF77FFF0195A06E0090EFB1B0EE8B
:1018A000480A00BF04F158000FC8FFF773FF38EE75
:1018B000098A46EA090646EA08063E4310D0642033
:1018C000FEF712FEA9E7FFE7B0EE680AC2E7B0EE46
:1018D000680ACDE7B0EE680AD8E7B0EE680AE1E73B
:1018E00003B0BDEC048BBDE8F08F000000000000E9
:1018F000000002400004024000000020FEF706BF86
:1019000030B593B030216846FEF72DFD14210CA8A8
:10191000FEF729FD1C480025016841F08051016057
:10192000006800F0805011901848016841F440416F
:1019300001600068022400F44040119001200090F2
:10194000000401908001CDE906400C200890602041
:10195000CDE9090404200B906846FFF775F808B13B
:1019600072B6FEE70CA90F2081E831004FF48050D9
:10197000CDE90F0503210CA8FEF77AFF002801D05E
:1019800072B6FEE713B030BD403802400070004030
:101990000248016841F470010160704788ED00E081
:1019A0000148FFF740BB000090000020F0B502683E
:1019B0001F4B204C204D214E4FF0804C984207D0B9
:1019C000604505D0A04203D0A84201D0B04203D167
:1019D00022F070074A683A43984210D060450ED012
:1019E000A0420CD0A8420AD0B04208D0144CA04269
:1019F00005D0144CA04202D0134CA04203D122F4D3
:101A00004074CA6822434C6922F0800222438C68E9
:101A1000C4620C688462984201D10969016301685B
:101A200041F004010160012141610260F0BD00004C
:101A3000000001400004004000080040000C00408D
:101A400000400140004401400048014010B5846856
:101A500042EA032224F47F440A432243826010BDF9
:101A6000826822F070020A4342F0070181607047E9
:101A700030B5036A026A22F0010202624268846998
:101A800024F073050C682C4323F002058B682B436C
:101A90000A4DA8420BD123F00805CB6822F440720E
:101AA0002B434D6923F0040315438A692A4342609E
:101AB000846149684163036230BD00000000014059
:101AC00030B5026A036A23F0100303624368846935
:101AD0000D6824F4E64444EA05248D6822F02002CF
:101AE00042EA05120B4DA8420ED1CD6822F08002C9
:101AF00042EA05124D6923F4406343EA85038D6988
:101B000022F0400243EA85034360846149688163AF
:101B1000026230BD0000014030B5036A026A22F45F
:101B2000807202624268C46923F4007324F0730572
:101B30000C682C438D6843EA05230C4DA8420ED156
:101B4000CD6823F4006343EA05234D6922F4405233
:101B500042EA05128D6923F4806342EA051242606D
:101B6000C4614968C163036230BD000000000140E8
:101B700030B5046A026A22F4805202624268C36984
:101B80000D6823F4E64343EA05238D6824F40054EA
:101B900044EA0534064DA84204D14D6922F480423E
:101BA00042EA85124260C36149680164046230BD43
:101BB0000000014010B5036A046A24F001040462C5
:101BC000846924F0F00444EA021423F00A020A4370
:101BD0008461026210BD10B5036A046A24F0100427
:101BE0000462846923F0A00324F4704444EA0232BE
:101BF00043EA01118261016210BD10B5806B0021C2
:101C0000C185FFF704FB10BD01680C3151E8002FBE
:101C100022F4907241E80023002BF5D101681431C1
:101C200051E8002F22F0010241E80023002BF5D1FA
:101C3000016B012909D101680C3151E8002F22F014
:101C4000100241E80023002BF5D1202180F842103A
:101C500000210163704708B590F84210222901D095
:101C6000022008BD82684FF480539A4201D1016975
:101C700021B1816A9A421BD04AB10AE00268816AA6
:101C80005268C2F308020A80816A891C08E002696E
:101C900072B10268526802F07F020A70816A491CC0
:101CA0008162C18D491E0904090CC18503D01BE066
:101CB00002685268F1E70168CA6822F02002CA602F
:101CC0000168CA6822F48072CA6001684A6922F019
:101CD00001024A61202180F8421000214163026B19
:101CE000012A03D0FFF752FC002008BD0163016800
:101CF0000C3151E8002F22F0100241E80023002BA4
:101D0000F5D101680A68D20602D50A6849680091CF
:101D1000818DFFF77BFAE7E770B50446006801693B
:101D2000E26821F44051114301612169A068E26930
:101D300008436169114308432168CA6849F20C638A
:101D40009A430243CA6020684169A26921F4407144
:101D50001143416131492068884202D030498842AC
:101D600002D1FEF72FFE01E0FEF71CFEE269002320
:101D7000192164253226B2F5004F626828D0A0FBF5
:101D80000101930F9200FEF777FA0146B0FBF5F0E0
:101D90006FF01802504301EB800006EB0010B0FB1F
:101DA000F5F000F0F002B1FBF5F002EB0012B1FB30
:101DB000F5F06FF01803584301EB800006EB0010BC
:101DC000B0FBF5F000F00F0021681044886070BD92
:101DD000A0FB010192185B41FEF74EFA0146B0FBF1
:101DE000F5F00201B1FBF5F06FF01803584301EB79
:101DF000800006EBC000B0FBF5F000F0F80002EB4D
:101E00004002B1FBF5F0584301EB800006EBC00047
:101E1000B0FBF5F000F00700D6E70000001001402D
:101E20000014014081628285C28500214164222123
:101E300080F84210016921B10168CA6842F48072D9
:101E4000CA6001684A6942F001024A610068C168DB
:101E500041F02001C1600020704700000148FFF7F9
:101E6000D7B90000D8000020FEE70907090E0028B6
:101E700004DB00F1E02080F80014704700F00F0050
:101E800000F1E02080F8141D704700001CB5FEF73B
:101E900045FCFFF735FDFFF79DFBFFF713FC3F48BF
:101EA0003D490C2201604FF4E13141600021816025
:101EB000C160C0E904128161C161FFF7E9FA08B1AC
:101EC00072B6FEE7012236493448FFF751FBFFF7AF
:101ED00093FC334CA41E20780028FCD101250195E9
:101EE000A0692E4E0090A088483606EB8001401C69
:101EF00091ED000AA08004F108000FC8FFF74AFC2A
:101F00000195E06A0090A08806EB8001401C91EDED
:101F1000000AA08004F11C000FC8FFF73BFC0195EC
:101F2000206C0090A08806EB8001401C91ED000A17
:101F3000A08004F130000FC8FFF72CFC0195606D04
:101F40000090A08806EB8001401C91ED000AA08063
:101F500004F144000FC8FFF71DFC0195A06E00902E
:101F6000A08806EB8001401C91ED000AA08004F1DE
:101F700058000FC8FFF70EFC0195E06F0090A08895
:101F800006EB8001401C91ED000AA08004F16C007A
:101F90000FC8FFF7FFFB9EE700100140D8000020AC
:101FA000020000204FF04070E1EE100A7047000080
:101FB00000000000000001020304060708090000F9
:101FC0000000010203040000E81F000800000020D8
:101FD00090000000D4010008782000089000002044
:101FE00040A30000F0010008010000000000000014
:101FF000000002400200000000000240010000005A
:10200000FC982C4200000240080000000000024042
:1020100004000000CA54CD4000000240200000002F
:1020200000000240100000007D9F8B42000402402F
:102030008000000000040240000100000000803F1A
:1020400000040240200000000004024040000000A4
:10205000000070400004024008000000000402403C
:10206000100000000000803F010000001000000090
:08207000000000000024F40050
:040000050800019955
:00000001FF
